:1009C500021200000A08C0F9A4B0999282F880903A
:0409D5000214000008
:0E0991002408F8E6F5807F107E277D007C00AC
:10099F008F198E188D178C16781674FF120838EC75
:1009AF004D4E4F601020A0F030A0FD0513E51370E1
:0609BF00E7051280E322AF
:10093700AE12AF137C007D02120800ED4C701ED37F
:10094700E5159409E514648094804005E4F514F5F1
:10095700150515E5157002051414120991AE12AFAD
:10096700137C007D02120800ED64014C70C2C3E5E0
:1009770014648094805006751400751509E51515E3
:0A098700157002151412099180A6E4
:030000000208AB48
:0C08AB00787FE4F6D8FD7581190208F290
:10080000C2D5EC30E709B2D5E4C39DFDE49CFCEE13
:1008100030E715B2D5E4C39FFFE49EFE120856C32D
:10082000E49DFDE49CFC800312085630D507C3E428
:060830009FFFE49EFE2282
:100836007401FF3395E0FEFDFC080808E6CF2FF6AD
:1008460018E6CE3EF618E6CD3DF618E6CC3CF62286
:1008B700020937E493A3F8E493A34003F68001F217
:1008C70008DFF48029E493A3F85407240CC8C33342
:1008D700C4540F4420C8834004F456800146F6DF11
:1008E700E4800B01020408102040809009C5E47ED3
:1008F700019360BCA3FF543F30E509541FFEE49306
:10090700A360010ECF54C025E060A840B8E493A3CC
:10091700FAE493A3F8E493A3C8C582C8CAC583CAF7
:10092700F0A3C8C582C8CAC583CADFE9DEE780BEAF
:0109D900001D
:10085600BC000BBE0029EF8DF084FFADF022E4CC86
:10086600F875F008EF2FFFEE33FEEC33FCEE9DEC4F
:10087600984005FCEE9DFE0FD5F0E9E4CEFD22ED95
:10088600F8F5F0EE8420D21CFEADF075F008EF2FDF
:10089600FFED33FD4007985006D5F0F222C398FDD0
:0508A6000FD5F0EA226D
:00000001FF
