:100166007E306D79335B5F707F7B771F4E3D4F47E7
:030176005E673E83
:04018600020C000067
:10013700E4FEEF30E704D2A08002C2A0EF25E0FF83
:09014700C2A2D2A20EBE08EA22F7
:0D017900C2A1120137AF05120137D2A12239
:1000F6007D017F0C1201797D097F0A1201797D0746
:100106007F0B120179E4FD7F091201797F0F02014D
:01011600796F
:100150008F0B8E0A8D098C08780874FF120119EC38
:060160004D4E4F70F3222A
:10008F001200F67D6D7F021201797D7E7F031201D2
:10009F00797D017F041201797D6D7F051201797FD2
:1000AF0006120179E4FD7F071201797DB37F0812F3
:1000BF000179050DE50DAE0C7002050C142470F5D9
:1000CF008274013EF583E493FD7F011201797F2055
:1000DF007E4E7D007C00120150E50D6409450C70C9
:0700EF00D1F50CF50D80CBEB
:03000000020003F8
:0C000300787FE4F6D8FD75810D02004AFC
:100117007401FF3395E0FEFDFC080808E6CF2FF6D3
:1001270018E6CE3EF618E6CD3DF618E6CC3CF622AC
:10000F0002008FE493A3F8E493A34003F68001F278
:10001F0008DFF48029E493A3F85407240CC8C333F2
:10002F00C4540F4420C8834004F456800146F6DFC1
:10003F00E4800B0102040810204080900186E47ECA
:10004F00019360BCA3FF543F30E509541FFEE493B6
:10005F00A360010ECF54C025E060A840B8E493A37D
:10006F00FAE493A3F8E493A3C8C582C8CAC583CAA8
:10007F00F0A3C8C582C8CAC583CADFE9DEE780BE60
:01018A000074
:00000001FF
