:10016D000113000112000114000A08BEBDBFBDBF7E
:05017D00EBDBFBDBFBE6
:10018300758901758C3C758AB0D2AFD2A9D28C2205
:0500030012018380FEE4
:03000B0002000EE2
:10000E00C0E0C0F0C0D075D000C007758C3C758ABA
:10001E00B00513E51375F01484E5F070020512E5D2
:10002E0012D39407500BE512C3940040047407805A
:10003E0016E512D39407400CE512D3940A5005C36B
:10004E00740B8003C374159512F514E51475F00A3C
:10005E0084C454F0FFE51475F00A84E5F02FF5B072
:10006E00E512B401058508A08058E512B407058590
:10007E0009A0804EE512B40805850AA08044E51259
:10008E00B40905850BA0803AE512B40A05850CA0CB
:10009E008030E512B40B05850DA08026E512B41153
:1000AE0005850EA0801CE512B41205850FA08012E6
:1000BE00E512B413058510A08008E512B41403856B
:1000CE0011A0E512B41403751200D007D0D0D0F0F1
:0300DE00D0E0323D
:030000000200E11A
:0C00E100787FE4F6D8FD75811402012838
:1000ED00020003E493A3F8E493A34003F68001F226
:1000FD0008DFF48029E493A3F85407240CC8C33314
:10010D00C4540F4420C8834004F456800146F6DFE2
:10011D00E4800B010204081020408090016DE47E04
:10012D00019360BCA3FF543F30E509541FFEE493D7
:10013D00A360010ECF54C025E060A840B8E493A39E
:10014D00FAE493A3F8E493A3C8C582C8CAC583CAC9
:10015D00F0A3C8C582C8CAC583CADFE9DEE780BE81
:01018200007C
:00000001FF
