:10015200CDE5B4F3B5E7D7D3A3AC462075206576D9
:100162006572796461790D0A003231303434313389
:100172003132320D20323130343431333132350DB7
:020182000A0071
:0301DA00010C0015
:1001A90075985053890F438920758BFD758DFDD244
:0601B9008ED2ACD2AF2291
:0C01CE00C2AC8F993099FDC299D2AC22CE
:100184008B088A09890AAB08AA09A90A120119600D
:1001940013050AE50A7002050914F9120119FF1280
:0501A40001CE80E22203
:09000300E4F5A07F4E7E07FDFC30
:10000C008F0B8E0A8D098C08780874FF120134EC62
:06001C004D4E4F70F3226F
:1000B2001201A97BFF7A017952120184C2A0C2A166
:1000C20020B20C30B2FD7BFF7A01796B120184E51C
:1000D2000C24CF60121460141460241460262404CB
:1000E20070DEE4F5A080D975A00180D475A0017FEF
:1000F2004E7E077D007C0012000C12000380C17549
:10010200A00280BC75A0027F4E7E077D007C00129B
:07011200000C12000380A99C
:030023000201BF18
:0F01BF00309809859990C29885990C32C299326F
:03000000020026D5
:0C002600787FE4F6D8FD75810C02006DB7
:10011900BB010689828A83E0225002E722BBFE02E4
:09012900E32289828A83E4932217
:100132007401FF3395E0FEFDFC080808E6CF2FF6B8
:1001420018E6CE3EF618E6CD3DF618E6CC3CF62291
:100032000200B2E493A3F8E493A34003F68001F232
:1000420008DFF48029E493A3F85407240CC8C333CF
:10005200C4540F4420C8834004F456800146F6DF9E
:10006200E4800B01020408102040809001DAE47E53
:10007200019360BCA3FF543F30E509541FFEE49393
:10008200A360010ECF54C025E060A840B8E493A35A
:10009200FAE493A3F8E493A3C8C582C8CAC583CA85
:1000A200F0A3C8C582C8CAC583CADFE9DEE780BE3D
:0101DD000021
:00000001FF
