:1008CF001A22D4D4BED49FA9D4D4BED48E9FD4D44C
:1008DF006A7E9FA9BE77777E9F8E9F001A080903B5
:1008EF000C0C0C1809030C0C0C1809030C0C0C0C39
:0808FF000C09030C0C0C18009D
:100928008F3F8E3E8D3D8C3C783C74FF12090AEC5B
:060938004D4E4F70F3224A
:10088C00D290E4FCFDE4FEFF0FBF00010EEF6428E4
:10089C004E70F5B2900DBD00010CBC04E8BDB0E586
:1008AC00E4FCFDC3ED9420EC940350D6E4FEFF0F62
:1008BC00BF00010EEF64324E70F5B2900DBD000119
:0308CC000C80E0BD
:03000000020800F3
:0C080000787FE4F6D8FD758141020847BE
:100908007401FF3395E0FEFDFC080808E6CF2FF6DA
:1009180018E6CE3EF618E6CD3DF618E6CC3CF622B3
:10080C0002088CE493A3F8E493A34003F68001F26E
:10081C0008DFF48029E493A3F85407240CC8C333ED
:10082C00C4540F4420C8834004F456800146F6DFBC
:10083C00E4800B01020408102040809008CFE47E75
:10084C00019360BCA3FF543F30E509541FFEE493B1
:10085C00A360010ECF54C025E060A840B8E493A378
:10086C00FAE493A3F8E493A3C8C582C8CAC583CAA3
:10087C00F0A3C8C582C8CAC583CADFE9DEE780BE5B
:0109070000EF
:00000001FF
