:0409340002080000B5
:0B092900EF1FAC0670011E4C70F622A0
:1008F300D2A07FE67E00120929C2A07FE67E000215
:020903000929C0
:10090500D2A07F637E00120929C2A07F637E000208
:020915000929AE
:10091700D2A07FA47E00120929C2A07FA47E000274
:0209270009299C
:10088C000509E50970020508D394E8E508940340CE
:10089C000FE50994DCE5089405500512091780E072
:1008AC00D3E50994F4E5089401400FE50994E8E5D3
:1008BC00089403500512090580C6D3E5099400E598
:1008CC000894004010D3E50994F4E5089401500510
:1008DC001208F380ABE50964DC7004E5086405706C
:0708EC009FF508F509809952
:03000000020800F3
:0C080000787FE4F6D8FD758109020847F6
:10080C0002088CE493A3F8E493A34003F68001F26E
:10081C0008DFF48029E493A3F85407240CC8C333ED
:10082C00C4540F4420C8834004F456800146F6DFBC
:10083C00E4800B0102040810204080900934E47E0F
:10084C00019360BCA3FF543F30E509541FFEE493B1
:10085C00A360010ECF54C025E060A840B8E493A378
:10086C00FAE493A3F8E493A3C8C582C8CAC583CAA3
:10087C00F0A3C8C582C8CAC583CADFE9DEE780BE5B
:0109380000BE
:00000001FF
