:10092200080C0406020301090901030206040C086B
:04093200C100C1013E
:10090C008F0B8E0A8D098C08780874FF1208EEEC98
:06091C004D4E4F70F32266
:10088C00E4FBEBD394074002E4FB20B00530B0FD51
:10089C00B20020B10530B1FDB20130001CEBFFC33A
:1008AC0074089FFFE49400FE742A2FF58274093EAD
:1008BC00F583E493F5A00B800AAF030BEF90092AA4
:1008CC0093F5A030010D7FE87E037D007C001209BA
:1008DC000C80AF7FA07E0F7D007C0012090C80A2E3
:03000000020800F3
:0C080000787FE4F6D8FD758120020847DF
:1008EC007401FF3395E0FEFDFC080808E6CF2FF6F7
:1008FC0018E6CE3EF618E6CD3DF618E6CC3CF622D0
:10080C0002088CE493A3F8E493A34003F68001F26E
:10081C0008DFF48029E493A3F85407240CC8C333ED
:10082C00C4540F4420C8834004F456800146F6DFBC
:10083C00E4800B0102040810204080900932E47E11
:10084C00019360BCA3FF543F30E509541FFEE493B1
:10085C00A360010ECF54C025E060A840B8E493A378
:10086C00FAE493A3F8E493A3C8C582C8CAC583CAA3
:10087C00F0A3C8C582C8CAC583CADFE9DEE780BE5B
:0109360000C0
:00000001FF
