:100BBF0000FE00FD00FB00F700EF00DF00BF007F2D
:100BCF000000000100000005000000080000000BFD
:040BDF000000000E04
:100B8A0025E02408F808E6F590E53125E025E0247B
:0F0B9A001CF812092CE47F207E4EFDFC120B4646
:100BA9008F358E348D338C32783274FF12093BECD9
:060BB9004D4E4F70F322C7
:100A7C0078087C007D007BFF7A0B79BF7E007F10AD
:100A8C001208D0751800751901E4F51AF51B781CBD
:100A9C007C00FD7BFF7A0B79CFFE7F141208D0E42B
:100AAC00F530F53120A00B30A0FD0519E5197002C9
:100ABC00051820A12730A1FDC3E530648094804047
:100ACC0016E5319404E53064809480500A0531E5D4
:100ADC0031700905308005E4F530F531AE18AF19E9
:100AEC007C007D021208F6ED64014C7021D3E51BED
:100AFC009407E51A648094804005E4F51AF51B050B
:100B0C001BE51B7002051A14120B8A020AB0AE18F0
:100B1C00AF197C007D021208F6ED4C7087C3E51A04
:100B2C00648094805006751A00751B07E51B151B15
:0A0B3C007002151A120B8A020AB0AB
:03000000020BE30D
:0C0BE300787FE4F6D8FD758135020A7CAD
:10080000E709F608DFFA8046E709F208DFFA803EDA
:1008100088828C83E709F0A3DFFA8032E309F608C7
:10082000DFFA8078E309F208DFFA807088828C832F
:10083000E309F0A3DFFA806489828A83E0A3F608E3
:10084000DFFA805889828A83E0A3F208DFFA804CBD
:1008500080D280FA80C680D4806980F28033801094
:1008600080A680EA809A80A880DA80E280CA8033FD
:1008700089828A83ECFAE493A3C8C582C8CCC58375
:10088000CCF0A3C8C582C8CCC583CCDFE9DEE78045
:100890000D89828A83E493A3F608DFF9ECFAA9F0C4
:1008A000EDFB2289828A83ECFAE0A3C8C582C8CC1A
:1008B000C583CCF0A3C8C582C8CCC583CCDFEADE33
:1008C000E880DB89828A83E493A3F208DFF980CC95
:1008D00088F0EF60010E4E60C388F0ED2402B4048E
:1008E0000050B9F582EB2402B4040050AF23234535
:0608F00082239008507302
:1008F600C2D5EC30E709B2D5E4C39DFDE49CFCEE1D
:1009060030E715B2D5E4C39FFFE49EFE120959C332
:10091600E49DFDE49CFC800312095930D507C3E42D
:060926009FFFE49EFE228B
:100B4600C2D5E830E70FB2D5E4C39BFBE49AFAE4DA
:100B560099F9E498F8EC30E717B2D5120B7C120934
:100B6600EAE4C39BFBE49AFAE499F9E498F8800373
:100B76001209EA30D50DE4C39FFFE49EFEE49DFD15
:040B8600E49CFC22CD
:0D092C00E6FB08E6F908E6FA08E6CBF8223B
:100939007401FF3395E0FEFDFC080808E6CF2FF6A9
:1009490018E6CE3EF618E6CD3DF618E6CC3CF62282
:10095900BC000BBE0029EF8DF084FFADF022E4CC82
:10096900F875F008EF2FFFEE33FEEC33FCEE9DEC4B
:10097900984005FCEE9DFE0FD5F0E9E4CEFD22ED91
:10098900F8F5F0EE8420D21CFEADF075F008EF2FDB
:10099900FFED33FD4007985006D5F0F222C398FDCC
:0509A9000FD5F0EA2269
:1009AE0075F008758200EF2FFFEE33FECD33CDCC00
:1009BE0033CCC58233C5829BED9AEC99E582984083
:1009CE000CF582EE9BFEED9AFDEC99FC0FD5F0D660
:1009DE00E4CEFBE4CDFAE4CCF9A88222B800C1B98A
:1009EE000059BA002DEC8BF084CFCECDFCE5F0CBC8
:1009FE00F97818EF2FFFEE33FEED33FDEC33FCEB01
:100A0E0033FB10D703994004EB99FB0FD8E5E4F9BB
:100A1E00FA227818EF2FFFEE33FEED33FDEC33FCA8
:100A2E00C933C910D7059BE99A4007EC9BFCE99A9C
:100A3E00F90FD8E0E4C9FAE4CCFB2275F010EF2FE1
:100A4E00FFEE33FEED33FDCC33CCC833C810D707E1
:100A5E009BEC9AE899400AED9BFDEC9AFCE899F81C
:0E0A6E000FD5F0DAE4CDFBE4CCFAE4C8F922AF
:00000001FF
