:08010D00FEFDFBF7EFDFBF7FF1
:05011500C100010C0017
:1000BC00E50C90010D93F5907FD07E077D007C00C0
:1000CC008F0B8E0A8D098C08780874FF1200E4ECF3
:0600DC004D4E4F70F322AF
:10009200D2AFD288D2A830000F1200BC050CE50CFA
:1000A200B408F3E4F50C80EE2000EB1200BC150C52
:0A00B200E50CB4FFE1750C0780DCDB
:03000300020102F5
:0B010200C0E0E5B06002B200D0E032C7
:03000000020006F5
:0C000600787FE4F6D8FD75812002004DE3
:1000E2007401FF3395E0FEFDFC080808E6CF2FF609
:1000F20018E6CE3EF618E6CD3DF618E6CC3CF622E2
:10001200020092E493A3F8E493A34003F68001F272
:1000220008DFF48029E493A3F85407240CC8C333EF
:10003200C4540F4420C8834004F456800146F6DFBE
:10004200E4800B0102040810204080900115E47E38
:10005200019360BCA3FF543F30E509541FFEE493B3
:10006200A360010ECF54C025E060A840B8E493A37A
:10007200FAE493A3F8E493A3C8C582C8CAC583CAA5
:10008200F0A3C8C582C8CAC583CADFE9DEE780BE5D
:01011A0000E4
:00000001FF
