:0A0A5A00040800000000020C000078
:060A30007E007D007C0049
:100A36008F118E108D0F8C0E780E74FF120818EC25
:060A46004D4E4F70F3223B
:080990007FF07E557D007C0024
:10099800E47B14FAF9F81209EC8F828E83E4F50BE4
:1009A800F50AF509F508AF82AE83EE3395E0FDFC54
:1009B800AB0BAA0AA909A808D31208005025C2A29D
:1009C8007F14120A30D2A27FC8120A30E50B240B1A
:1009D800F50BE4350AF50AE43509F509E43508F5B7
:0409E8000880C3229E
:0E0A4C00C2A1C2A0120990D2A012099080F49B
:03000000020904EE
:0C090400787FE4F6D8FD75811102094BE4
:1009EC00C2D5E830E70FB2D5E4C39BFBE49AFAE436
:1009FC0099F9E498F8EC30E717B2D5120A221208EC
:100A0C0072E4C39BFBE49AFAE499F9E498F8800346
:100A1C0012087230D50DE4C39FFFE49EFEE49DFDE9
:040A2C00E49CFC2228
:10080000EB9FF5F0EA9E42F0E99D42F0EC6480C86F
:0608100064809845F0220F
:100816007401FF3395E0FEFDFC080808E6CF2FF6CD
:1008260018E6CE3EF618E6CD3DF618E6CC3CF622A6
:10091000020A4CE493A3F8E493A34003F68001F2A7
:1009200008DFF48029E493A3F85407240CC8C333E8
:10093000C4540F4420C8834004F456800146F6DFB7
:10094000E4800B0102040810204080900A5AE47EE3
:10095000019360BCA3FF543F30E509541FFEE493AC
:10096000A360010ECF54C025E060A840B8E493A373
:10097000FAE493A3F8E493A3C8C582C8CAC583CA9E
:10098000F0A3C8C582C8CAC583CADFE9DEE780BE56
:010A64000091
:1008360075F008758200EF2FFFEE33FECD33CDCC79
:1008460033CCC58233C5829BED9AEC99E5829840FC
:100856000CF582EE9BFEED9AFDEC99FC0FD5F0D6D9
:10086600E4CEFBE4CDFAE4CCF9A88222B800C1B903
:100876000059BA002DEC8BF084CFCECDFCE5F0CB41
:10088600F97818EF2FFFEE33FEED33FDEC33FCEB7A
:1008960033FB10D703994004EB99FB0FD8E5E4F935
:1008A600FA227818EF2FFFEE33FEED33FDEC33FC22
:1008B600C933C910D7059BE99A4007EC9BFCE99A16
:1008C600F90FD8E0E4C9FAE4CCFB2275F010EF2F5B
:1008D600FFEE33FEED33FDCC33CCC833C810D7075B
:1008E6009BEC9AE899400AED9BFDEC9AFCE899F896
:0E08F6000FD5F0DAE4CDFBE4CCFAE4C8F92229
:00000001FF
