:100860008F0B8E0A8D098C08780874FF120828EC0B
:060870004D4E4F70F32213
:10084600B2967F887E137D007C00120860B2977F87
:0A085600887E137D007C000208601C
:10080000C290C297C29663A0FFD292D290C29112B8
:100810000846D290D291C292120846D291D292C288
:060820009012084680E082
:030000000208767D
:0C087600787FE4F6D8FD75810B020800C5
:100826007401FF3395E0FEFDFC080808E6CF2FF6BD
:1008360018E6CE3EF618E6CD3DF618E6CC3CF62296
:00000001FF
