:10008600EEDEBE7EEDDDBD7DEBDBBB7BE7D7B77776
:100070008F0B8E0A8D098C08780874FF120052ECE1
:060080004D4E4F70F3220B
:1000030075B00FE5B0640F60FA7FD07E077D007C8A
:1000130000120070E5B0640F600385B00C75B0F09A
:10002300E5B0640F6006E5B0250CF50CE4F50DE5CD
:100033000D90008693650C6007050DE50DB410EF78
:0D00430075B00FE5B0B40FFB850DA080B6C1
:0300000002009665
:0C009600787FE4F6D8FD75810D020003B0
:100050007401FF3395E0FEFDFC080808E6CF2FF69B
:1000600018E6CE3EF618E6CD3DF618E6CC3CF62274
:00000001FF
